{
  "contractName": "ProxyDelegate",
  "abi": [
    {
      "constant": true,
      "inputs": [],
      "name": "version",
      "outputs": [
        {
          "name": "",
          "type": "uint256"
        }
      ],
      "payable": false,
      "stateMutability": "view",
      "type": "function"
    },
    {
      "constant": true,
      "inputs": [],
      "name": "owner",
      "outputs": [
        {
          "name": "",
          "type": "address"
        }
      ],
      "payable": false,
      "stateMutability": "view",
      "type": "function"
    },
    {
      "constant": true,
      "inputs": [],
      "name": "delegate",
      "outputs": [
        {
          "name": "",
          "type": "address"
        }
      ],
      "payable": false,
      "stateMutability": "view",
      "type": "function"
    },
    {
      "inputs": [
        {
          "name": "delegateAddress",
          "type": "address"
        }
      ],
      "payable": false,
      "stateMutability": "nonpayable",
      "type": "constructor"
    },
    {
      "payable": false,
      "stateMutability": "nonpayable",
      "type": "fallback"
    },
    {
      "anonymous": false,
      "inputs": [
        {
          "indexed": false,
          "name": "result",
          "type": "bytes"
        }
      ],
      "name": "LogResult",
      "type": "event"
    }
  ],
  "bytecode": "0x608060405234801561001057600080fd5b506040516020806103f18339810180604052602081101561003057600080fd5b810190808051906020019092919050505033600160006101000a81548173ffffffffffffffffffffffffffffffffffffffff021916908373ffffffffffffffffffffffffffffffffffffffff16021790555080600260006101000a81548173ffffffffffffffffffffffffffffffffffffffff021916908373ffffffffffffffffffffffffffffffffffffffff1602179055505061031e806100d36000396000f3fe608060405234801561001057600080fd5b50600436106100415760003560e01c806354fd4d50146101ee5780638da5cb5b1461020c578063c89e436114610256575b60006060600260009054906101000a900473ffffffffffffffffffffffffffffffffffffffff1673ffffffffffffffffffffffffffffffffffffffff16600036604051808383808284378083019250505092505050600060405180830381855af49150503d80600081146100d1576040519150601f19603f3d011682016040523d82523d6000602084013e6100d6565b606091505b50915091508161014e576040517f08c379a00000000000000000000000000000000000000000000000000000000081526004018080602001828103825260148152602001807f65787465726e616c2063616c6c206661696c656400000000000000000000000081525060200191505060405180910390fd5b7f958c0193cea72acb1ba51b31092fb4edff6e5bf84a2289db7e76bea413645df3816040518080602001828103825283818151815260200191508051906020019080838360005b838110156101b0578082015181840152602081019050610195565b50505050905090810190601f1680156101dd5780820380516001836020036101000a031916815260200191505b509250505060405180910390a15050005b6101f66102a0565b6040518082815260200191505060405180910390f35b6102146102a6565b604051808273ffffffffffffffffffffffffffffffffffffffff1673ffffffffffffffffffffffffffffffffffffffff16815260200191505060405180910390f35b61025e6102cc565b604051808273ffffffffffffffffffffffffffffffffffffffff1673ffffffffffffffffffffffffffffffffffffffff16815260200191505060405180910390f35b60005481565b600160009054906101000a900473ffffffffffffffffffffffffffffffffffffffff1681565b600260009054906101000a900473ffffffffffffffffffffffffffffffffffffffff168156fea165627a7a72305820a1ae5eb7a69e76a976acbb2f5bf7e9cd12679b974a491c4e8989b37982169a070029",
  "source": "pragma solidity ^0.5.0;\n\ncontract ProxyDelegate {\n    uint public version;\n    address public owner;\n    address public delegate;  // contract to delegate calls to\n\n    event LogResult(bytes result);\n\n    constructor(address delegateAddress) public {\n        owner = msg.sender;\n        delegate = delegateAddress;\n    }\n\n    function() external {\n        (bool success, bytes memory returnData) = delegate.delegatecall(msg.data);\n        require(success, \"external call failed\");\n        emit LogResult(returnData);\n    }\n}",
  "sourcePath": "/Users/eduardopezzi/Documents/Blockchain Course/smartcontract_Advance/proxy-delegate/contracts/ProxyDelegate.sol",
  "compiler": {
    "name": "solc",
    "version": "0.5.8+commit.23d335f2.Emscripten.clang"
  },
  "schemaVersion": "3.0.16",
  "updatedAt": "2020-03-11T01:39:59.076Z",
  "devdoc": {
    "methods": {}
  },
  "userdoc": {
    "methods": {}
  }
}